:100000000C942A000C9447000C9447000C94470071
:100010000C9447000C9447000C9447000C94470044
:100020000C9447000C94D3030C9447000C944700A5
:100030000C9447000C9447000C9447000C94470024
:100040000C9447000C9447000C9447000C94470014
:100050000C94470011241FBECFE5D4E0DEBFCDBF16
:1000600011E0A0E6B0E0EEE1FDE002C005900D92E7
:10007000A435B107D9F713E0A4E5B1E001C01D92A2
:10008000A933B107E1F70E9414040C948D060C9477
:100090000000089520911B0130911C0181E02E3158
:1000A000310508F080E00895813049F4F894109209
:1000B0001C0110921B01109254017894089588231A
:1000C00051F4F8948EE190E090931C0180931B0111
:1000D000109254017894089590931C0180931B0111
:1000E000089580911B0190911C0108950E940305C1
:1000F000882339F010921C0110921B0110925401B8
:10010000089580911B0190911C012EE0813192078E
:10011000A0F4809154018F5F809354018091540129
:100120008A3059F480911B0190911C0101969093A3
:100130001C0180931B01109254010895DC018C91E5
:10014000882349F080E08F5FFD01E80FF11D908169
:100150009923C9F7089580E00895EF92FF920F93D5
:100160001F93CF93DF937C010E949E00D82F88239A
:1001700051F08701C0E0F80181918F010E945E0675
:10018000CF5FCD17C1F7F7011082DF91CF911F919B
:100190000F91FF90EF900895FF920F931F93CF93CD
:1001A000DF93082FF92E0E949E00182F882349F014
:1001B000C02FDF2D00E089910E945E060F5F0117BE
:1001C000D1F78DE00E945E068AE00E945E06DF9114
:1001D000CF911F910F91FF9008958DE00E945E06D0
:1001E0008AE00E945E060895CF93DF930E94ED009F
:1001F000A9E6B2E0E0E6F0E089E101900D928150DD
:10020000E1F7C9E6D2E0CE010E94CC00E9E7F0E0D8
:1002100089E1019009928150E1F7C9E6D2E0CE016F
:100220000E94CC00E2E9F0E089E10190099281505E
:10023000E1F7C9E6D2E0CE010E94CC00E0E6F0E0B2
:1002400089E1019009928150E1F789E692E00E94EC
:10025000CC00DF91CF9108950E94ED00A9E6B2E0B5
:10026000EBEAF0E087E001900D928150E1F789E63A
:1002700092E00E94CC000E94ED000895CF93DF939E
:100280000F92CDB7DEB7809157018823F1F4CE01EC
:1002900001960E945506882309F452C080915801A6
:1002A000833571F48981843559F481E08093570155
:1002B0001092590110925A0110925B0180E041C0E6
:1002C00089818093580180E03CC0CE0101960E9454
:1002D00055068823A1F1898120915B01280F209385
:1002E0005B0190915901992319F48093560120C024
:1002F000913029F480935A018093550119C080915F
:100300005A01882321F0815080935A0111C0222381
:1003100049F49F5F90935501109257011092580134
:1003200081E00FC0109257011092580180E009C07F
:10033000809159018F5F8093590180E002C001C014
:1003400080E00F90DF91CF910895CF93C82F0E9446
:100350004F06982F9053963080F1813429F481E034
:100360000E9454009C2F29C0823429F481E00E940D
:10037000D0029C2F22C0833429F481E00E948103A3
:100380009C2F1BC0843491F0853491F0863429F47D
:1003900081E00E9441039C2F10C0873459F08834BB
:1003A00059F481E00E942E039C2F07C09C2F05C0AA
:1003B0009C2F03C09C2F01C09C2F892FCF910895A3
:1003C00080915C01882399F0815080935C01809139
:1003D0005D01EEE5F1E0E80FF11D80810E945E060F
:1003E00080915D018F5F80935D0181E0089510929F
:1003F0005D0180E008950E94E0018823E1F70895FF
:10040000582F792F462F60935C012EE531E0822F23
:10041000932F652F50E00E948406089590915C010F
:100420009F3F41F0EEE5F1E0E90FF11D80839F5F12
:1004300090935C01089510925C0110925D01089503
:1004400080E008950E94190508950E94E001882324
:10045000E1F708950E94E0010895CF93DF93CDB7AF
:10046000DEB72A970FB6F894DEBF0FBECDBFDE0110
:100470001196E2EBF0E08AE001900D928150E1F7F5
:100480000E941B02CE01019669E00E9400020E94B8
:10049000E0012A960FB6F894DEBF0FBECDBFDF9104
:1004A000CF91089581E40E945E06089580E50E9440
:1004B0005E0683E50E945E060E940705882321F000
:1004C00081E30E945E0603C080E30E945E068DE029
:1004D0000E945E068AE00E945E06089580E50E9402
:1004E0005E0683E50E945E060E940705882321F0D0
:1004F00081E30E945E0603C080E30E945E068DE0F9
:100500000E945E068AE00E945E06089580E50E94D1
:100510005E0682E40E945E060E941003882321F09A
:1005200081E30E945E0603C080E30E945E068DE0C8
:100530000E945E068AE00E945E06089580E50E94A1
:100540005E0682E40E945E060E941003882321F06A
:1005500081E30E945E0603C080E30E945E068DE098
:100560000E945E068AE00E945E06089580E00E9476
:100570003903089581E00E943903089580E00E94C4
:100580002202089581E00E942202089520913501FF
:100590003091360181E0243B310508F080E0089578
:1005A000813049F4F894109236011092350110927E
:1005B0005D0278940895882351F4F89484EB90E0D8
:1005C000909336018093350110925D0278940895DE
:1005D0008091350190913601089590E09093360115
:1005E00080933501089580913501909136012EE078
:1005F00081319207A0F480915D028F5F80935D024C
:1006000080915D028A3059F48091350190913601D4
:100610000196909336018093350110925D02089502
:1006200081E090915E02923308F480E00895809317
:100630005F0208950E940705882341F080915E02C1
:10064000883C30F48F5F80935E02089510925E02C2
:100650000895809160021092600208958093600274
:10066000089580E00E94BC030E94FB01089580E091
:1006700008950E941305089580916102109261020D
:10068000089580936102089581E00E94BC030E9456
:10069000FB010895F894909363028093620278942A
:1006A00008958091620290916302009729F001976A
:1006B0009093630280936202089580916202909108
:1006C0006302089581E02091620230916302211556
:1006D000310509F080E0089585E083BF81E088BF9F
:1006E00089BF0895209137013091380181E02E3182
:1006F000310508F080E0089580913701909138012C
:100700000895813049F4F89410923801109237011D
:100710001092640278940895882351F4F8948EE13D
:1007200090E090933801809337011092640278949E
:10073000089590E090933801809337010895809157
:100740003701909138012EE081319207A0F4809119
:1007500064028F5F80936402809164028A3059F44E
:1007600080913701909138010196909338018093E0
:1007700037011092640208951F93CF93DF93C82F1F
:100780000E941B02D0E0CC0FDD1FCC0FDD1FC75C29
:10079000DE4F14E089910E940E021150D9F7DF91CB
:1007A000CF911F9108951F920F920FB60F921124AF
:1007B0002F933F934F935F936F937F938F939F9369
:1007C000AF93BF93EF93FF93809165029091660280
:1007D0008330910550F480916502909166020196F4
:1007E00090936602809365020EC01092660210928A
:1007F00065020E9451030E9476000E949F030E949E
:10080000F3020E941A03FF91EF91BF91AF919F9164
:100810008F917F916F915F914F913F912F910F90A9
:100820000FBE0F901F901895CF93DF93CDB7DEB713
:10083000CC57D0400FB6F894DEBF0FBECDBFDE015F
:10084000599684E6FD0111928A95E9F7EBECF0E008
:1008500089E001900D928150E1F7FE01B2968BE0A4
:10086000DF011D928A95E9F7DE019D96EFEDF0E03C
:1008700088E001900D928150E1F7FE01F5968CE041
:10088000DF011D928A95E9F782E595E5AEE4B0E0D7
:1008900025968CAF9DAFAEAFBFAF259780E1FE012F
:1008A000EB5BFF4FDF011D928A95E9F7DE01AB5A42
:1008B000BF4FE3EFF0E088E001900D928150E1F747
:1008C000E5E5F0E0EC0FFD1F38968CE0DF011D92AE
:1008D0008A95E9F7DE01A759BF4FE7E0F1E08EE026
:1008E00001900D928150E1F7E9E6F0E0EC0FFD1F79
:1008F0003E9686E0DF011D928A95E9F70E94F80492
:1009000060E071EE80E090E00E942A060E941C06E2
:10091000182F0E946C0378948AE090E00E944A03AA
:100920000E945D030097E1F7EE24FF246894E5F848
:10093000FA82E982CE0101960E94CC00FA82E98215
:10094000CE0101960E94CC00DE011196ECEBF0E0A6
:100950008FE001900D928150E1F7CE0101960E9447
:10096000CC00412F50E024E130E0429FC001439F82
:10097000900D529F900D1124E9E1F0E0EC0FFD1F66
:100980008E0F9F1F0E94CC00012F0F2EF9E4EF2E37
:10099000F1E0FF2EF02DE12FF0E0EE0FFF1FEE0D46
:1009A000FF1D0190F081E02D09950E94A501182FEF
:1009B000801789F390E0880F991F880F991F9C0179
:1009C000220F331F220F331F820F931F29E130E0C4
:1009D0002C0F3D1F820F931F0E94CC008AE090E0F5
:1009E0000E944A030E945D030097E1F7012FD3CFD5
:1009F0001BBA1ABA18BA8FE087BB15BA14BA12BA62
:100A000082E081BB089581E0CA9980E0089581E089
:100A1000C99980E0089581E0C89980E0089581E057
:100A2000829980E00895882311F0C09A0895C098B3
:100A30000895882311F0C19A0895C19808958823D4
:100A400011F0C29A0895C2980895882311F0C39AAC
:100A50000895C3980895809167028530C1F40E947B
:100A60001003882371F41092670280E090E00E94E6
:100A70004A0380E00E94540080E00E94390380E035
:100A800008950E946203882369F0109267020E9411
:100A9000310385E08093670284E690E00E944A0378
:100AA00084E0089584E0089580916702823099F48B
:100AB0000E946203882321F180E00E9422021092AA
:100AC00067020E94710085369105E0F480E00E9483
:100AD000D00281E008950E944A00882329F40E94F0
:100AE00071008536910580F081E00E94220282E04B
:100AF0008093670283E290E00E944A0383E00895B6
:100B000083E0089584E0089583E00895809167026A
:100B10008130B1F40E946203882329F180E00E94B1
:100B200022020E941003882301F11092670280E0E4
:100B300090E00E944A0380E00E94D00281E0089584
:100B40000E944A00882399F081E00E94390381E0E5
:100B50000E94220281E08093670283E290E00E947B
:100B60004A0380E0089580E0089580E0089580E0E1
:100B7000089580916702833089F40E9410038823CE
:100B800009F046C0109267020E94810380E00E9433
:100B9000D00280E00E94540080E008958430E9F49F
:100BA0000E946203882321F01092670282E0089578
:100BB0000E943C03882371F11092670280E090E06C
:100BC0000E944A0380E00E94810380E00E94D002DC
:100BD00080E00E94540083E008950E94E8028D3373
:100BE00040F080E00E94390383E08093670282E056
:100BF00008950E947203882379F40E94440384E0DC
:100C00008093670284E690E00E944A0382E00895A0
:100C100082E0089582E0089582E008950E94C6026D
:100C2000882341F081E00E94810381E00E94D0028C
:100C300082E0089581E0089580E00E94390380E019
:100C4000089591E020916802281390E08093680253
:100C5000892F0895DC01CB0110BC880F991FAA1FB2
:100C6000BB1F880F991FAA1FBB1F9C01AD01220F3C
:100C7000331F441F551F220F331F441F551F60E0B1
:100C800074E284EF90E00E9462062150304029B95E
:100C90008AB188618AB980B5866880BD08955F9BF6
:100CA00002C08CB1089580E008955F9B05C02CB10F
:100CB000FC01208381E0089580E008955D9BFECFD4
:100CC0008CB90895A1E21A2EAA1BBB1BFD010DC011
:100CD000AA1FBB1FEE1FFF1FA217B307E407F507EC
:100CE00020F0A21BB30BE40BF50B661F771F881FC8
:100CF000991F1A9469F760957095809590959B015E
:100D0000AC01BD01CF010895FB01DC0102C00190DF
:0E0D10000D9241505040D8F70895F894FFCF4F
:100D1E002A2A2A2A2A2A2A2A2A2A2A2A2A2A2A2A25
:100D2E002A2A2A2A2A2A2A2A002A20202020415624
:100D3E005220494F20434F4E54524F4C20202020DA
:100D4E002A002A2028432920323030372C204F4CBD
:100D5E00494D4558204C7464202A004552524F523A
:100D6E00210057656C636F6D65210A004355525221
:100D7E00454E542053544154453A00504F57455216
:100D8E004F46460000000000000000000000004238
:100D9E004F4F54494E470000000000000000000075
:100DAE0000000053555350454E4400000000000013
:100DBE00000000000000004245464F52504F57457C
:100DCE00524F4646000000000000001E005202C2B4
:100DDE0002BE02BA02B6029E0286026E0256022DB2
:100DEE00022A022502B4001E0048433158484331FE
:100DFE0053484331484843314186050E06B90554E0
:040E0E00052B0500AB
:00000001FF
